:100000000C9434000C943E000C943E000C943E0082
:100010000C943E000C943E000C943E000C943E0068
:100020000C943E000C943E000C9487000C947100DC
:100030000C943E000C943E000C943E000C943E0048
:100040000C943E000C943E000C943E000C943E0038
:100050000C943E000C943E000C943E000C943E0028
:100060000C943E000C943E0011241FBECFEFD8E04C
:10007000DEBFCDBF0E9440000C94A3000C94000092
:100080007894259A219AE1E8F0E080818B7F808343
:1000900080818D7F808380818160808385E097E48B
:1000A000909389008093880080818F7E80838081F7
:1000B00088608083A0E8B0E08C918D7F8C938C91D8
:1000C0008E7F8C938C918F778C938C9180648C93A2
:1000D000808180648083EFE6F0E0808180628083AD
:1000E000FFCF1F920F920FB60F9211248F939F9301
:1000F00095B184E0892785B910928500109284001B
:100100009F918F910F900FBE0F901F9018951F9287
:100110000F920FB60F9211248F939F93EF93FF933B
:1001200095B180E2892785B9E1E8F0E0908180E42B
:1001300089278083FF91EF919F918F910F900FBE40
:0A0140000F901F901895F894FFCF60
:00000001FF
