:100000000C9434000C9451000C9451000C94510049
:100010000C9451000C9451000C9451000C9451001C
:100020000C9451000C9451000C94B3000C949A0061
:100030000C9451000C9451000C9451000C945100FC
:100040000C9451000C9451000C9451000C945100EC
:100050000C9451000C9451000C9451000C945100DC
:100060000C9451000C94510011241FBECFEFD8E026
:10007000DEBFCDBF11E0A0E0B1E0E8EAF7E002C0EA
:1000800005900D92A430B107D9F721E0A4E0B1E0CA
:1000900001C01D92A231B207E1F70E9453000C94F7
:1000A000D2030C94000078942098219A299AE1E8D0
:1000B000F0E080818B7F808380818D7F8083808151
:1000C0008E7F808380EA90E09093890080938800FF
:1000D00080818F7E8083808188608083A0E8B0E00B
:1000E0008C918D7F8C938C918E7F8C938C918F775C
:1000F0008C938C9180648C93808180648083C0E039
:10010000D1E08091040190910501892BD1F3809178
:100110000A0190910B019F938F93DF93CF930E94DD
:10012000F40010920501109204010F900F900F90AF
:100130000F90E7CF1F920F920FB60F9211248F935B
:10014000EF93FF931092850010928400EFE6F0E0A9
:10015000808180628083FF91EF918F910F900FBE1D
:100160000F901F9018951F920F920FB60F921124A7
:100170002F933F938F939F93AF93BF93EF93FF93EF
:10018000E6E8F0E080819181909309018093080175
:10019000A1E8B0E08C918F7B8C93808191819093CA
:1001A000070180930601809106019091070120913B
:1001B000080130910901821B930B90930B018093EE
:1001C0000A0181E090E09093050180930401FF9182
:1001D000EF91BF91AF919F918F913F912F910F9090
:1001E0000FBE0F901F901895A0E0B0E0EAEFF0E08E
:1001F0000C94AB03AE014B5F5F4FFA0161917191BB
:10020000AF0180910E0190910F010E940A01E2E07E
:100210000C94C703ABE0B0E0E0E1F1E00C949B0389
:100220006C017B018A01FC0117821682838181FFA8
:10023000CCC1CE0101963C01F6019381F70193FDFB
:10024000859193FF81917F01882309F4BAC185329A
:1002500039F493FD859193FF81917F01853229F4D3
:10026000B60190E00E940103E7CF912C212C312CA4
:10027000FFE1F315D8F08B3279F038F4803279F061
:100280008332A1F4232D20611DC08D3261F08033B3
:1002900069F4232D216016C0832D8260382EE32D52
:1002A000E4603E2E2AC0F32DF8601DC037FC2DC03F
:1002B00020ED280F2A3040F08E32B9F436FC81C18F
:1002C000232D2064322E19C036FE06C08AE0989E87
:1002D000200D1124922E11C0EAE02E9E200D112433
:1002E000222EF32DF0623F2E08C08C3621F4832D90
:1002F0008068382E02C0883641F4F70193FD85915D
:1003000093FF81917F018111B3CF982F9F7D9554E9
:10031000933028F40C5F1F4F9FE399830DC0833601
:1003200031F0833771F0833509F059C021C0F801ED
:10033000808189830E5F1F4F88248394912C530101
:1003400013C02801F2E04F0E511CF801A080B180CB
:1003500036FE03C0692D70E002C06FEF7FEFC5016C
:100360000E94F6024C018201F32DFF773F2E16C04A
:10037000280122E0420E511CF801A080B18036FE17
:1003800003C0692D70E002C06FEF7FEFC5010E94CE
:10039000EB024C01F32DF0683F2E820133FC1BC0B1
:1003A000822D90E088169906B0F4B60180E290E0C4
:1003B0000E9401032A94F4CFF50137FC859137FEA2
:1003C00081915F01B60190E00E94010321102A94FF
:1003D00021E0821A91088114910471F7E8C08436F3
:1003E00011F0893641F5F80137FE07C0608171814F
:1003F000828193810C5F1F4F08C060817181072E3D
:10040000000C880B990B0E5F1F4FF32DFF763F2ECC
:1004100097FF09C090958095709561957F4F8F4F9C
:100420009F4FF0683F2E2AE030E0A3010E943D0379
:10043000882E861845C0853731F4232D2F7EB22EA5
:100440002AE030E025C0932D997FB92E8F36C1F078
:1004500018F4883579F0B5C0803719F0883721F065
:10046000B0C0E92FE061BE2EB4FE0DC0FB2DF460DC
:10047000BF2E09C034FE0AC0292F2660B22E06C046
:1004800028E030E005C020E130E002C020E132E0A9
:10049000F801B7FE07C060817181828193810C5F92
:1004A0001F4F06C06081718180E090E00E5F1F4F9A
:1004B000A3010E943D03882E8618FB2DFF773F2E57
:1004C00036FE0DC0232D2E7FA22E891458F434FE43
:1004D0000BC032FC09C0832D8E7EA82E05C0B82C1F
:1004E000A32C03C0B82C01C0B92CA4FE0FC0FE0180
:1004F000E80DF11D8081803321F49A2D997EA92E7B
:1005000009C0A2FE06C0B394B39404C08A2D8678B5
:1005100009F0B394A3FC11C0A0FE06C0B21488F485
:10052000280C922C9B180EC0B21460F4B60180E225
:1005300090E00E940103B394F7CFB21418F42B1883
:1005400002C0982C212CA4FE10C0B60180E390E0DC
:100550000E940103A2FE17C0A1FC03C088E790E03F
:1005600002C088E590E0B6010CC08A2D867859F06B
:10057000A1FE02C08BE201C080E2A7FC8DE2B601C1
:1005800090E00E940103891438F4B60180E390E002
:100590000E9401039A94F7CF8A94F301E80DF11DAC
:1005A0008081B60190E00E9401038110F5CF2220E6
:1005B00009F442CEB60180E290E00E9401032A9441
:1005C000F6CFF6018681978102C08FEF9FEF2B96C1
:1005D000E2E10C94B703FC010590615070400110FA
:1005E000D8F7809590958E0F9F1F0895FC0161505C
:1005F000704001900110D8F7809590958E0F9F1F45
:1006000008950F931F93CF93DF93FB01238121FD67
:1006100003C08FEF9FEF2CC022FF16C04681578189
:10062000248135814217530744F4A081B1819D0193
:100630002F5F3F4F318320838C93268137812F5F3B
:100640003F4F3783268314C08B01EC01FB010084EC
:10065000F185E02D0995892BE1F6D80116968D914B
:100660009C911797019617969C938E931697CE019F
:10067000DF91CF911F910F910895FA01AA27283099
:1006800051F1203181F1E8946F936E7F6E5F7F4F5F
:100690008F4F9F4FAF4FB1E03ED0B4E03CD0670FDB
:1006A000781F891F9A1FA11D680F791F8A1F911D2E
:1006B000A11D6A0F711D811D911DA11D20D009F47E
:1006C00068943F912AE0269F11243019305D3193C0
:1006D000DEF6CF010895462F4770405D4193B3E0A9
:1006E0000FD0C9F7F6CF462F4F70405D4A3318F050
:1006F000495D31FD4052419302D0A9F7EACFB4E001
:10070000A6959795879577956795BA95C9F70097B8
:100710006105710508959B01AC010A2E0694579559
:10072000479537952795BA95C9F7620F731F841FB0
:10073000951FA01D08952F923F924F925F926F9246
:100740007F928F929F92AF92BF92CF92DF92EF9261
:10075000FF920F931F93CF93DF93CDB7DEB7CA1BE2
:10076000DB0B0FB6F894DEBF0FBECDBF09942A880D
:10077000398848885F846E847D848C849B84AA84B5
:10078000B984C884DF80EE80FD800C811B81AA8142
:10079000B981CE0FD11D0FB6F894DEBF0FBECDBF0D
:0807A000ED010895F894FFCF6C
:0407A80025750A00A9
:00000001FF
