S01500004D796C65735F56657273696F6E2E73726563C0
S11300000C9434000C9451000C9451000C94510045
S11300100C9451000C9451000C9451000C94510018
S11300200C9451000C9451000C94B9010C9451009F
S11300300C9451000C9451000C9451000C945100F8
S11300400C9451000C9451000C9451000C945100E8
S11300500C9451000C94F0010C9451000C94510038
S11300600C9451000C94510011241FBECFEFD8E022
S1130070DEBFCDBF11E0A0E0B1E0E2E7FAE002C0EC
S113008005900D92A435B107D9F721E0A4E5B1E0BC
S113009001C01D92A236B207E1F70E9400010C9440
S11300A037050C940000CF93C82F8A3019F48DE0E3
S11300B00E945300E0ECF0E0808185FFFDCFC09307
S11300C0C60080E090E0CF910895E0ECF0E08081FC
S11300D08823ECF78091C60090E008951092C50043
S11300E087E68093C400E0ECF0E080818D7F80831C
S11300F086E08093C20088E18093C100ECE5F1E0E2
S11301008EE091E09383828380E091E09183808309
S11301100895E1E8F0E080818B7F808380818D7F8A
S113012080838081816080838081806180838081FD
S113013088608083E0E8F0E0808182608083808151
S11301408160808380818062808380818F7E8083D0
S1130150109289001092880080EA90E090938B00BE
S113016080938A000895ACE7B0E08C918F778C93EC
S11301708C9180648C93EAE7F0E0808184608083D2
S11301808081826080838081816080838C91877F7D
S11301908C938C918B7F8C938C918D7F8C938C9191
S11301A08E7F8C938081806280838081886080834D
S11301B0AEE7B0E08C918E7F8C93808180688083E1
S11301C08081806480830895279A85B5877F85BD63
S11301D084B5826084BD84B58E7F84BD84B58F77F9
S11301E084BD84B5806484BD8DE787BD85B58B7F70
S11301F085BD85B5826085BD85B5816085BD089561
S11302007894E1E6F0E080E8808310820E946E003A
S11302100E94B3000E94E4002098229A2A9A0E9425
S11302208900E1E8F0E0808180648083EFE6F0E01B
S11302308081806280830F2EFCE1AF2EF1E0BF2E1F
S1130240F02D07E211E0CAE2D1E00F2EFDE2CF2E3D
S1130250F1E0DF2EF02D0F2EF8E3EF2EF1E0FF2E6C
S1130260F02D0F2EF5E48F2EF1E09F2EF02D0F2EA2
S1130270F8E76F2E712CF02D80915A0190915B015B
S1130280892B09F44EC0BF92AF921F930F930E9423
S1130290520280915801909159019F938F93DF935B
S11302A0CF930E9452028AE090E00E946802DF929B
S11302B0CF921F930F930E94520280915601909106
S11302C057019F938F93DF93CF930E9452028AE04A
S11302D090E00E946802FF92EF921F930F930E9496
S11302E0520280915601909157012091580130910A
S11302F05901821B930B9F938F93DF93CF930E949B
S113030052028AE090E00E94680210925B0110920F
S11303105A018DB79EB748960FB6F8949EBF0FBE8C
S11303208DBF8091540190915501883E934009F00E
S1130330A3CF9F928F921F930F930E945202F301B7
S1130340808191819F938F93DF93CF930E94520278
S11303508AE090E00E9468021092550110925401C4
S11303608DB79EB708960FB6F8949EBF0FBE8DBF8B
S113037083CF1F920F920FB60F9211248F939F93E6
S1130380EF93FF938091810086FF0EC080918600D9
S1130390909187009093590180935801E1E8F0E02F
S11303A080818F7B808313C0809186009091870029
S11303B0909357018093560181E090E090935B0104
S11303C080935A01E1E8F0E0808180648083FF91AA
S11303D0EF919F918F910F900FBE0F901F901895E2
S11303E01F920F920FB60F9211242F938F939F9306
S11303F080917800909179008038910518F48DE708
S113040087BD3FC080917800909179008F3F91051E
S113041009F018F48FE687BD34C08091780090917C
S113042079008038914018F483E687BD2AC0809112
S11304307800909179008115924018F48EE587BD7B
S113044020C080917800909179008038924018F40F
S113045083E587BD16C0809178009091790081155D
S1130460934018F48AE487BD0CC080917800909181
S113047079008038934018F482E487BD02C08EE38B
S113048087BD809154019091550101969093550137
S1130490809354019F918F912F910F900FBE0F90D5
S11304A01F901895A0E0B0E0E8E5F2E00C94100588
S11304B0AE014B5F5F4FFA0161917191AF01809181
S11304C05E0190915F010E946F02E2E00C942C05A2
S11304D060915E0170915F010E9466040895ABE033
S11304E0B0E0E5E7F2E00C9400056C017B018A01C1
S11304F0FC0117821682838181FFCCC1CE01019653
S11305003C01F6019381F70193FD859193FF81915D
S11305107F01882309F4BAC1853239F493FD8591AA
S113052093FF81917F01853229F4B60190E00E9406
S11305306604E7CF912C212C312CFFE1F315D8F080
S11305408B3279F038F4803279F08332A1F4232DA0
S113055020611DC08D3261F0803369F4232D216048
S113056016C0832D8260382EE32DE4603E2E2AC00F
S1130570F32DF8601DC037FC2DC020ED280F2A3064
S113058040F08E32B9F436FC81C1232D2064322E22
S113059019C036FE06C08AE0989E200D1124922EC2
S11305A011C0EAE02E9E200D1124222EF32DF062BC
S11305B03F2E08C08C3621F4832D8068382E02C06B
S11305C0883641F4F70193FD859193FF81917F0172
S11305D08111B3CF982F9F7D9554933028F40C5FED
S11305E01F4F9FE399830DC0833631F0833771F039
S11305F0833509F059C021C0F801808189830E5FD9
S11306001F4F88248394912C530113C02801F2E0D6
S11306104F0E511CF801A080B18036FE03C0692D35
S113062070E002C06FEF7FEFC5010E945B044C01D4
S11306308201F32DFF773F2E16C0280122E0420EDF
S1130640511CF801A080B18036FE03C0692D70E012
S113065002C06FEF7FEFC5010E9450044C01F32DDF
S1130660F0683F2E820133FC1BC0822D90E0881677
S11306709906B0F4B60180E290E00E9466042A94E0
S1130680F4CFF50137FC859137FE81915F01B60106
S113069090E00E94660421102A9421E0821A9108B5
S11306A08114910471F7E8C0843611F0893641F55C
S11306B0F80137FE07C060817181828193810C5FEC
S11306C01F4F08C060817181072E000C880B990BA5
S11306D00E5F1F4FF32DFF763F2E97FF09C09095B5
S11306E08095709561957F4F8F4F9F4FF0683F2E97
S11306F02AE030E0A3010E94A204882E861845C097
S1130700853731F4232D2F7EB22E2AE030E025C028
S1130710932D997FB92E8F36C1F018F4883579F06E
S1130720B5C0803719F0883721F0B0C0E92FE061F7
S1130730BE2EB4FE0DC0FB2DF460BF2E09C034FEE6
S11307400AC0292F2660B22E06C028E030E005C07A
S113075020E130E002C020E132E0F801B7FE07C03A
S113076060817181828193810C5F1F4F06C060811B
S1130770718180E090E00E5F1F4FA3010E94A204EC
S1130780882E8618FB2DFF773F2E36FE0DC0232DB5
S11307902E7FA22E891458F434FE0BC032FC09C0FB
S11307A0832D8E7EA82E05C0B82CA32C03C0B82C94
S11307B001C0B92CA4FE0FC0FE01E80DF11D80811B
S11307C0803321F49A2D997EA92E09C0A2FE06C079
S11307D0B394B39404C08A2D867809F0B394A3FC2F
S11307E011C0A0FE06C0B21488F4280C922C9B18E9
S11307F00EC0B21460F4B60180E290E00E94660478
S1130800B394F7CFB21418F42B1802C0982C212CEF
S1130810A4FE10C0B60180E390E00E946604A2FE2C
S113082017C0A1FC03C088E790E002C088E590E00F
S1130830B6010CC08A2D867859F0A1FE02C08BE265
S113084001C080E2A7FC8DE2B60190E00E9466043C
S1130850891438F4B60180E390E00E9466049A9407
S1130860F7CF8A94F301E80DF11D8081B60190E081
S11308700E9466048110F5CF222009F442CEB6010D
S113088080E290E00E9466042A94F6CFF601868105
S1130890978102C08FEF9FEF2B96E2E10C941C0529
S11308A0FC010590615070400110D8F78095909537
S11308B08E0F9F1F0895FC0161507040019001103C
S11308C0D8F7809590958E0F9F1F08950F931F93CF
S11308D0CF93DF93FB01238121FD03C08FEF9FEFB3
S11308E02CC022FF16C046815781248135814217CE
S11308F0530744F4A081B1819D012F5F3F4F3183A1
S113090020838C93268137812F5F3F4F3783268343
S113091014C08B01EC01FB010084F185E02D0995E5
S1130920892BE1F6D80116968D919C911797019623
S113093017969C938E931697CE01DF91CF911F91BA
S11309400F910895FA01AA27283051F1203181F13D
S1130950E8946F936E7F6E5F7F4F8F4F9F4FAF4FC3
S1130960B1E03ED0B4E03CD0670F781F891F9A1FD6
S1130970A11D680F791F8A1F911DA11D6A0F711D8A
S1130980811D911DA11D20D009F468943F912AE096
S1130990269F11243019305D3193DEF6CF0108957E
S11309A0462F4770405D4193B3E00FD0C9F7F6CFAF
S11309B0462F4F70405D4A3318F0495D31FD405277
S11309C0419302D0A9F7EACFB4E0A695979587950D
S11309D077956795BA95C9F70097610571050895EC
S11309E09B01AC010A2E0694579547953795279598
S11309F0BA95C9F7620F731F841F951FA01D089530
S1130A002F923F924F925F926F927F928F929F921A
S1130A10AF92BF92CF92DF92EF92FF920F931F9308
S1130A20CF93DF93CDB7DEB7CA1BDB0B0FB6F894B9
S1130A30DEBF0FBECDBF09942A88398848885F84F9
S1130A406E847D848C849B84AA84B984C884DF806A
S1130A50EE80FD800C811B81AA81B981CE0FD11D4E
S1130A600FB6F894DEBF0FBECDBFED010895F89424
S1050A70FFCFB2
S1130A72000000010000000000006500000000000A
S1130A820002000000005300000000007269736558
S1130A9274696D653A200025730025750066616CE2
S1130AA26C74696D653A2000646966666572656E88
S1130AB263653A20004C696768742053656E736FEE
S1070AC2723A200060
S9030000FC
